:04000000FEEFFFF020
:102000000000BA6ABB6ABC6ABD6ABE6A3A01426B2A
:10201000526B626B726B826BC268C368C468C568BE
:10202000060EC66E4069506960697069060E806F61
:10203000416B516B616B716B816B43695369636970
:102040007369070E836F44695469646974690F0E7C
:10205000846F5A6B5B6B6A6B6B6B7A6B7B6B456BDC
:10206000466B476B556B566B576B656B666B676B57
:10207000856B866B876B1200D29A3901A191D28051
:10208000000E0A6E000E0B6E000E0C6E96EC10F039
:102090003901A591D282000E0A6E000E0B6E000E61
:1020A0000C6E8FEC10F03901A79BD284000E0A6EE3
:1020B000000E0B6E000E0C6E88EC10F0120081EC1E
:1020C00010F0BEB066EF10F069EF10F0010E6AEF8D
:1020D00010F0000EFF0A0D6EBE500D18FE0B0D180D
:1020E000BE6EA30E0E6E570E0D6E020EE82EFED7BC
:1020F0000D2EFCD70E2EFAD700D061EF10F0FEEFB8
:10210000FFF09DEC10F001EC10F03CEC10F0120030
:102110000AC001F00BC002F00CC003F012000AC0AC
:1021200004F00BC005F00CC006F012000AC007F066
:102130000BC008F00CC009F01200600E3901D96F15
:0C214000080EDF6F120000015FEF10F0CE
:020000040001F9
:04FFFC00A3EF10F06F
:020000040030CA
:0A0000008CFFF7FF9FFFFFFFFFFFDB
:00000001FF
